:020000040800F2
:1000000048080020450100089101000893010008FC
:10001000970100089B0100089F01000800000000F4
:10002000000000000000000000000000A301000824
:10003000A501000800000000A7010008A9010008B0
:100040005F0100085F0100085F0100085F01000810
:100050005F0100085F0100085F0100085F01000800
:100060005F0100085F0100085F0100085F010008F0
:100070005F0100085F0100085F0100085F010008E0
:100080005F0100085F0100085F0100085F010008D0
:100090005F0100085F0100085F0100085F010008C0
:1000A0005F0100085F0100085F0100085F010008B0
:1000B0005F0100085F0100085F0100085F010008A0
:1000C0005F0100085F0100085F0100085F01000890
:1000D0005F0100085F0100085F0100085F01000880
:1000E0005F0100085F0100085F0100085F01000870
:1000F0005F0100085F0100085F0100085F01000860
:100100005F0100085F0100085F0100085F0100084F
:100110005F0100085F0100085F0100085F0100083F
:100120005F0100085F0100085F0100085F0100082F
:10013000DFF80CD003F0BCFF00480047690100085D
:10014000480800200648804706480047FEE7FEE7CB
:10015000FEE7FEE7FEE7FEE7FEE7FEE7FEE7FEE777
:10016000191700083101000801F0D6FA03F0C7FCA6
:1001700008E0054803F056FB044908604FF4967008
:1001800003F070FCF5E700000000002014000020E0
:10019000704700BFFEE700BFFEE700BFFEE700BFFD
:1001A000FEE77047704770477047000010B504467F
:1001B000F948844208D10121401500F06BFE00216E
:1001C000601500F067FE17E0F448844208D1012171
:1001D000001500F05FFE0021201500F05BFE0BE033
:1001E000EF48844208D10121C80300F053FE0021EA
:1001F0004FF4004000F04EFE10BD30B50246002026
:1002000000235068E74C20400D790C6844EA05242F
:10021000204350609068E44C2040D1E902542C43C4
:100220004D7944EA450420439060D06A20F4700080
:100230000C7C641EE4B2234340EA0350D06230BD1C
:1002400000210160017141718160C160012101746F
:10025000704721B1826842F00102826003E0826847
:1002600022F001028260704721B1826842F48072FC
:10027000826003E0826822F480728260704710B569
:100280000023CBB21AB144681C43446002E04468C6
:100290009C43446010BD816841F008018160704753
:1002A000014600208A6812F0080F01D0012000E00A
:1002B00000207047816841F0040181607047014669
:1002C00000208A6812F0040F01D0012000E0002015
:1002D000704721B1826842F4A002826003E0826824
:1002E00022F4A00282607047014600208A6812F45E
:1002F000800F01D0012000E00020704710B50A46B1
:1003000000210023416821F46041531E41EA43313A
:10031000416010BD21B1426842F40062426003E0D6
:10032000426822F4006242607047F0B504460D4610
:1003300000200021092D11DDE068A5F10A0606EB79
:100340004607072606FA07F18843A5F10A0606EBD9
:10035000460603FA06F10843E0600CE0206905EB6D
:100360004507072606FA07F1884305EB450603FA19
:1003700006F108432061072A0FDA606B561E06EB70
:1003800086071F2606FA07F18843561E06EB8606E7
:1003900005FA06F10843606322E00D2A0FDA206BAC
:1003A000D61F06EB86071F2606FA07F18843D61FDD
:1003B00006EB860605FA06F10843206310E0E06AC2
:1003C000A2F10D0606EB86071F2606FA07F1884301
:1003D000A2F10D0606EB860605FA06F10843E06277
:1003E000F0BD21B1826842F48012826003E082682D
:1003F00022F48012826070470146C86C80B2704758
:1004000065484C300068704721B1426842F4806210
:10041000426003E0426822F480624260704721B18A
:10042000426842F48052426003E0426822F4805203
:10043000426070470A460021816821F4E04111437F
:100440008160704721B1826842F40042826003E01B
:10045000826822F400428260704721B1826842F4CF
:100460000212826003E0826822F402128260704706
:10047000014600208A6812F4001F01D0012000E02C
:1004800000207047F0B504461546002000220026E3
:10049000092911DDE068A1F10A0707EB470C0727DE
:1004A00007FA0CF29043A1F10A0707EB470703FA9A
:1004B00007F21043E0600CE0206901EB410C0727D4
:1004C00007FA0CF2904301EB410703FA07F21043DD
:1004D0002061A06BC0F30156EF1C06F1010CA7EBE5
:1004E0000C0707EB870C1F2707FA0CF29043EF1C51
:1004F00006F1010CA7EB0C0707EB870701FA07F2DF
:100500001043A063F0BD10B50A4600210023816BA3
:1005100021F44011531E41EA0351816310BD10B50F
:10052000002303460B441A6010BD02460023134605
:1005300001F128000344186880B270470A46002180
:1005400041681A4B19401143416070474162826211
:1005500070470A460021416821F01F0111434160A4
:10056000704740B10C490831096841F400010A4A5A
:100570000832116007E008490831096821F40001D8
:10058000054A0832116070470246002013680B428A
:100590000ED001200DE000000024014000280140A1
:1005A000003C0140FFFEF0FFFDF7F1FFFFFD3FFFC4
:1005B00000207047CA430260704770B502460020B1
:1005C000002300240B125568CEB205EA0604156814
:1005D0001D4202D00CB1012000E0002070BD0022BD
:1005E0000A12D3430360704701684FF6FE72114050
:1005F00001600021016041608160C1608C498842D6
:1006000008D18B490839496841F00F01884A083AF6
:1006100051608AE086491431884208D184490839FA
:10062000496841F0F001824A083A51607DE0804912
:100630002831884208D17E490839496841F47061FF
:100640007B4A083A516070E079493C31884208D1D0
:1006500077490839496841F47041754A083A516050
:1006600063E073495031884208D1714908394968BB
:1006700041F470216E4A083A516056E06C49643189
:10068000884208D16A490839496841F47001684ACA
:10069000083A516049E066497831884208D1644996
:1006A0000839496841F07061614A083A51603CE09C
:1006B0006049884206D1011F096841F00F01021FFD
:1006C000116032E05B491431884208D15949091F51
:1006D000096841F0F001574A121F116025E05549A1
:1006E0002831884208D15349091F096841F47061D3
:1006F000504A121F116018E04E493C31884208D11F
:100700004C49091F096841F470414A4A121F11609F
:100710000BE048495031884207D14649091F096812
:1007200041F47021434A121F1160704710B5002236
:10073000026847F6F0739A430C6A8B6823430C698E
:1007400023434C6923438C692343CC6923434C6A7C
:1007500023438C6A23431A430260CB6843600B68CF
:1007600083604B68C36010BD0021016041608160FF
:10077000C160016141618161C16101624162816267
:10078000704721B1026842F00102026004E0026891
:100790004FF6FE731A40026070471AB103680B43AC
:1007A000036002E003688B43036070474160704759
:1007B0000146486880B2704701460020002211F0CF
:1007C000805F03D01B4B083B1A6802E0184B083BC4
:1007D0001A680A4201D0012000E00020704710F0A2
:1007E000805F03D01349091F086002E010490839EF
:1007F0004860704701460020002211F0805F03D05E
:100800000C4B083B1A6802E0094B083B1A680A4285
:1008100001D0012000E00020704710F0805F03D07D
:100820000449091F086002E001490839486070471F
:10083000080002400804024010B50446CA48844239
:1008400008D10121042000F025FB0021042000F044
:1008500021FB46E0C548844208D10121082000F070
:1008600019FB0021082000F015FB3AE0C048844243
:1008700008D10121102000F00DFB0021102000F014
:1008800009FB2EE0BB48844208D10121202000F062
:1008900001FB0021202000F0FDFA22E0B64884424E
:1008A00008D10121402000F0F5FA0021402000F09D
:1008B000F1FA16E0B148844208D10121802000F00D
:1008C000E9FA0021802000F0E5FA0AE0AC48844211
:1008D00007D10121801500F0DDFA0021A01500F0FC
:1008E000D9FA10BD10B50121084600F0D3FA002155
:1008F000012000F0CFFA10BD2DE9F041024600259D
:100900000026002000230024002791F803C00CF0EB
:100910000F0591F803C01CF0100F03D091F802C02E
:100920004CEA0505B1F800C01CF0FF0F31D0146887
:1009300000202BE04FF0010C0CFA00F3B1F800C0DE
:100940000CEA03069E4220D183004FF00F0C0CFAF4
:1009500003F7BC4305FA03FC4CEA040491F803C016
:10096000BCF1280F06D14FF0010C0CFA00FCC2F8C4
:1009700014C00AE091F803C0BCF1480F05D14FF054
:10098000010C0CFA00FCC2F810C0401C0828D1D39E
:100990001460B1F800C0BCF1FF0F34DD54680020D2
:1009A0002EE000F1080C4FF0010808FA0CF3B1F842
:1009B00000C00CEA03069E4221D183004FF00F0CC9
:1009C0000CFA03F7BC4305FA03FC4CEA040491F863
:1009D00003C0BCF1280F05D100F1080C08FA0CF88F
:1009E000C2F8148091F803C0BCF1480F07D100F1A0
:1009F000080C4FF0010808FA0CF8C2F81080401CEF
:100A00000828CED35460BDE8F0814FF6FF71018015
:100A1000022181700421C170704702460020936852
:100A20000B4201D0012000E0002070470146886899
:100A300080B2704702460020D3680B4201D00120EB
:100A400000E0002070470146C86880B2704701612D
:100A50007047416170470AB1016100E04161704730
:100A6000C16070474FF480320A43826181618261C4
:100A700082698269704702460020424B18684FF62F
:100A80008073184040EA021008433E4B18607047DC
:100A90003D49C8617047F0B50A4600230024002193
:100AA000002500F00046B6F1004F02D1354EF16945
:100AB00001E0344E7168C0F3034583B200F4401680
:100AC000B6F5401F08D121F070612E4E766826F0F1
:100AD00070662C4F7E6012E000F48016B6F5801F21
:100AE00006D1032606FA05F4A14341F0706106E041
:100AF000460D360103FA06F6B14341F0706122B1AA
:100B0000460D360103FA06F6314300F00046B6F111
:100B1000004F02D11B4EF16101E01A4E7160F0BD31
:100B200030B500228B071C0F0F2303FA04F2154B7C
:100B300008338C1053F824309343124C08348D1032
:100B400044F8253023468C1053F824308C07240FAA
:100B500000FA04F423430B4C08348D1044F825307C
:100B600030BD0A490860704700080140000C014090
:100B7000001001400014014000180140001C014019
:100B8000002001400000014000002042DC00204223
:100B9000DC48006840F00100DA4908600846406817
:100BA000D9490840D749486008460068D7490840F5
:100BB000D44908600846006820F480200860084690
:100BC000406820F4FE0048604FF41F0088607047C2
:100BD000CC49096821F48031CA4A1160114609687C
:100BE00021F480211160B0F5803F03D0B0F5802F53
:100BF0000ED106E0C349096841F48031C14A116051
:100C000007E0C049096841F4A021BE4A116000E034
:100C100000BF00BF704710B501460022002300202E
:100C20004A11012A02D1B74C236806E0022A02D1F8
:100C3000B44C236A01E0B34C636A01F01F02012443
:100C400094401C4201D0012000E0002010BD70B58E
:100C500000240025002600BF3120FFF7DCFF0646F8
:100C6000641CB4F5A06F01D0002EF5D03120FFF741
:100C7000D2FF08B1012500E00025284670BD0146DD
:100C80000020A04A106820F0F80040EAC10010607F
:100C900070479F490860704702460020994B58688A
:100CA00020F47C1042EA01031843964B58607047C9
:100CB00097490866704701460020924A506820F024
:100CC00003000843506070478E48406800F00C00F5
:100CD0007047014600208B4A506820F0F00008431E
:100CE0005060704701460020864A506820F4E0605A
:100CF00008435060704701460020824A506820F443
:100D0000605040EAC1005060704729B17D4A527A74
:100D100002437C4B5A7206E07A4A527AC343DBB2F2
:100D20001A40784B5A7270477A49086070470146FA
:100D30000020744A506820F44040084350607047D7
:100D40000021754A11706F4A82F82010012802D0E4
:100D5000042808D103E001216F4A117004E0052145
:100D60006D4A117000E000BF00BF70476B4908601A
:100D700070476449096A0143624A116270476749D2
:100D800044390860704730B5002100220024002358
:100D90005C4D6D6805F00C0121B1042905D00829CE
:100DA00023D105E05E4D056022E05E4D05601FE049
:100DB000544D6D6805F47012524D6D6805F4803421
:100DC000022505EB92421CB9574D554305600BE0D7
:100DD0004C4D6D6815F4003F03D0514D55430560EF
:100DE00002E0504D5543056002E04D4D056000BFE7
:100DF00000BF444D6D6805F0F00109094B4D6B5C77
:100E00000568DD4045603F4D6D6805F4E061090A05
:100E1000464D6B5C4568DD4085603A4D6D6805F474
:100E20006051C90A414D6B5C4568DD40C560354D78
:100E30006D6805F44041890B3D4D6B5CC568B5FBA1
:100E4000F3F5056130BD29B12E4A526902432D4B9D
:100E50005A6104E02B4A526982432A4B5A61704717
:100E600029B1284A92690243264B9A6104E0254A37
:100E700092698243234B9A61704729B1214AD26912
:100E80000243204BDA6104E01E4AD26982431D4BC3
:100E9000DA61704729B11B4AD2680243194BDA6004
:100EA00004E0184AD2688243164BDA60704729B1D1
:100EB000144A12690243134B1A6104E0114A126981
:100EC0008243104B1A6170471449403908607047DB
:100ED0000F49C86470470B49C87170470948406A98
:100EE00040F0807007494862704701460020054A7B
:100EF00092680A4201D0012000E0002070470149B9
:100F000088727047001002400000FFF8FFFFF6FEF5
:100F100000004242D8004242201002408004424277
:100F200000127A000024F40000093D001C0000209B
:100F30002C00002010B50446BF48844208D101218E
:100F40008014FFF7A7FF0021A014FFF7A3FF16E00E
:100F5000BA48844208D101210014FFF7A8FF0021FC
:100F60002014FFF7A4FF0AE0B548844207D101210D
:100F7000C013FFF79CFF0021E013FFF798FF10BD9F
:100F800010B50022028802F441520B884C8823439A
:100F90008C882343CC8823430C8923434C892343E7
:100FA0008C892343CC8923431A430280838B4FF2DD
:100FB000FF74234083830B8A038210BD2DE9F04F19
:100FC00085B005460C464FF0000902274FF0000897
:100FD0004FF0010B0026B246A88B4FF240010840AB
:100FE000A88302202884B5F81C90A068022801D1AB
:100FF00000BF36E0A08810B94FF0010B01E04FF0C0
:10100000020B8E48854200D100E000BF6846FFF722
:10101000BAFEDDF800A0E088B0F5007F0AD14FEA03
:101020001A2000EB80004000A168B0FBF1F0401DE9
:1010300086B20BE04FEA4B10BAFBF0F000EB8000F9
:101040004000A168B0FBF1F0401D86B20A20B6FB5B
:10105000F0F606F00108A6EB0800C0F34F074FEAD0
:101060000828022F01DBFF2F02DD02274FF00008C6
:10107000E08840EA080038432884A088A189084312
:10108000618808432188084340F4006040EA090968
:10109000A5F81C9005B0BDE8F08F002101804180CB
:1010A0008180C180018141818181C18107210182CB
:1010B00070470021018041808180C18002218160D0
:1010C00000218181704721B1028842F040020280F4
:1010D00004E002884FF6BF731A400280704721B1C6
:1010E000828B42F48062828304E0828B4FF6FF336E
:1010F0001A408283704770B5002400230C1101252B
:10110000A540ABB21AB185881D43858004E085886F
:10111000DE43B6B23540858070BD10B51AB1838804
:101120000B43838004E08388CC43A4B223408380B4
:1011300010BD81817047014688897047A1F57E42C4
:10114000FF3A04D0028842F48072028004E00288F0
:101150004FF6FF631A400280704721B1828842F047
:101160000402828004E082884FF6FB731A4082807A
:10117000704702884FF2FF731A40028002880A43C8
:1011800002807047018841F480510180704721B18D
:10119000028842F40052028004E002884DF6FF7398
:1011A0001A400280704702460020012901D0108BAE
:1011B00000E0908A70470146088A7047B1F5804F79
:1011C00004D1028842F48042028004E002884BF697
:1011D000FF731A40028070470246002013890B42B9
:1011E00001D0012000E000207047CA43028170470F
:1011F000F0B50246002000240023002501F00F076F
:101200000126BE40B4B20B1101269E40B3B29688AF
:1012100006EA03051689264202D00DB1012000E03E
:101220000020F0BD10B5002201F00F040123A340FF
:101230009AB2D343038110BD003001400038004012
:10124000003C004010B50446FC48844209D101210D
:101250008803FFF71FFE00214FF48040FFF71AFEBE
:1012600032E0F748844209D101214804FFF71FFE0C
:1012700000214FF40030FFF71AFE25E0F1488442C8
:1012800009D101218804FFF712FE00214FF48020CC
:10129000FFF70DFE18E0EC48844209D10121C80493
:1012A000FFF705FE00214FF40020FFF700FE0BE0E2
:1012B000E648844208D101210805FFF7F8FD002126
:1012C0004FF48010FFF7F3FD10BD2DE9F04786B015
:1012D00005460E460024A24600BFA1460027B0895D
:1012E00000B100BF2F462C8A4CF6FF700440F088F6
:1012F00004432C82AC894EF6F3100440B088318947
:101300000843718908430443AC81AC8A4FF6FF401F
:101310000440B0890443AC8201A8FFF734FDC748FC
:10132000874202D1DDF810A001E0DDF80CA0A88909
:1013300010F4004F08D00AEBCA0000EB0A10316825
:101340004900B0FBF1F807E00AEBCA0000EB0A1015
:1013500031688900B0FBF1F86420B8FBF0F00401BB
:101360002009642101FB1089A88910F4004F08D0DE
:10137000322000EBC900B0FBF1F000F0070004439D
:1013800008E0322000EB09106421B0FBF1F000F01E
:101390000F0004432C8106B0BDE8F0874FF41651CE
:1013A000016000218180C18001810C2141810021E7
:1013B0008181704710B502460020108A4FF2FF036A
:1013C00018400B884C8823438C882343CC882343C4
:1013D0001843108210BD0021018041808180C180AE
:1013E000704721B1828942F40052828104E08289EF
:1013F0004DF6FF731A4082817047F0B50346002412
:10140000002600250020A1F510676A3F00D100BF2B
:101410001846C1F3421401F01F06012707FA06F52A
:10142000012C01D10C3004E0022C01D1103000E07D
:1014300014301AB107682F43076002E00768AF4312
:101440000760F0BD10B51AB1838A0B43838204E0B4
:10145000838ACC43A4B22340838210BD028A4FF614
:10146000F0731A400282028A0A430282704782891C
:101470004FF2FF731A40828182890A43828170474A
:1014800021B1828942F00202828104E082894FF612
:10149000FD731A4082817047028A4FF6DF731A404B
:1014A0000282028A0A430282704721B1028A42F410
:1014B0008042028204E0028A4BF6FF731A400282E5
:1014C0007047C1F308028280704701468888C0F3E4
:1014D00008007047818941F0010181817047028BCA
:1014E000D2B20283028B42EA012202837047028B4E
:1014F00002F47F420283028B0A430283704721B1C8
:10150000828A42F02002828204E0828A4FF6DF73F0
:101510001A408282704721B1828A42F01002828290
:1015200004E0828A4FF6EF731A408282704721B13D
:10153000828A42F00802828204E0828A4FF6F773C0
:101540001A408282704721B1828942F4004282812E
:1015500003E08289C2F30E028281704721B1828A40
:1015600042F40062828204E0828A4FF2FF731A40E2
:1015700082827047828A4FF6FB731A408282828A87
:101580000A438282704721B1828A42F0020282823B
:1015900004E0828A4FF6FD731A4082827047024649
:1015A0000020B1F5007F00D100BF13880B4201D0AD
:1015B000012000E00020704701F40072B2F5007FC6
:1015C00000D100BFCA430280704770B502460024B4
:1015D000002300250020A1F510666A3E00D100BF5F
:1015E000C1F3421501F01F03012606FA03F3012D92
:1015F00002D19689334006E0022D02D1168A33408B
:1016000001E0968A33400C12012606FA04F416888B
:10161000344013B10CB1012000E0002070BD10B5C2
:1016200000220023A1F510646A3C00D100BF0A1219
:1016300001249440A3B2DC43048010BD0038014073
:101640000044004000480040004C00400050004072
:1016500000210020674A126842F48032654B1A600C
:1016600000BF644A126802F40030491C10B9B1F599
:10167000A06FF6D15F4A126812F4003F01D001203A
:1016800000E00020012842D15B4A126842F01002BB
:10169000594B1A601A46126822F003021A601A4661
:1016A000126842F002021A60524A5268514B5A6064
:1016B0001A4652685A601A46526842F480625A606A
:1016C0001A46526822F47C125A601A46526842F452
:1016D000F8125A601A46126842F080721A6000BF0F
:1016E000444A126812F0007FFAD0424A526822F04F
:1016F0000302404B5A601A46526842F002025A6096
:1017000000BF3C4A526802F00C02082AF9D1704727
:1017100010B5FFF79DFF10BD10B53648006840F0CA
:10172000010034490860084640683449084031499E
:10173000486008460068324908402E49086008465B
:10174000006820F4802008600846406820F4FE000D
:1017500048604FF41F008860FFF7DAFF4FF0006029
:101760002849086010BD10B5002100200022214B3F
:101770005B6803F00C0121B1042906D0082928D1A7
:1017800007E0214B214C236027E0214B1F4C2360B5
:1017900023E0184B5B6803F47010164B5B6803F48E
:1017A0008032022303EB904022B91A4B4343174C7B
:1017B00023600DE00F4B5B6813F4003F04D0124B25
:1017C0004343124C236003E0114B43430F4C23600F
:1017D00003E00D4B0D4C236000BF00BF054B5B6861
:1017E000C3F303130C4CE15C084B1B68CB40074C64
:1017F000236010BD00100240002002400000FFF8EE
:10180000FFFFF6FE08ED00E000127A003000002035
:101810000024F40000093D003400002008B5012137
:101820000820FFF71DFB4020ADF8000003208DF8D5
:10183000020014208DF803006946BA48FFF75CF8EF
:101840008020ADF8000003208DF8020014208DF8F0
:1018500003006946B348FFF74FF808BD00BF704763
:1018600041F2883000E0401E0028FCD1704700B5EE
:101870008020AC491031086040200860FFF7EEFF7F
:10188000A8480830006808B9012000E0002010F0E6
:10189000800F01D0002000BD8020A24914310860D3
:1018A000FFF7DCFF9F480830006810F0800F01D080
:1018B0000020F0E780209B4914310860FFF7CEFF3D
:1018C0000120E8E700B54020964914310860FFF791
:1018D000C5FF8020934914310860FFF7BFFF402007
:1018E000904910310860FFF7B9FF80208D49103111
:1018F0000860FFF7B3FF00BD00B5402089491431EF
:101900000860FFF7ABFF8020864914310860FFF7BD
:10191000A5FF4020834910310860FFF79FFF40205A
:10192000804914310860FFF799FF00BD00B54020E1
:101930007C4914310860FFF791FF8020794910310C
:101940000860FFF78BFF4020764910310860FFF7F1
:1019500085FF4020734914310860FFF77FFF00BD09
:1019600000B540206F4914310860FFF777FF8020F1
:101970006C4910310860FFF771FF40206949103150
:101980000860FFF76BFF67480830006810F0800FB1
:1019900007D04020634914310860FFF75FFF002043
:1019A00000BD40205F4914310860FFF757FF012058
:1019B000F6E700B508211BE040225A4B14331A60A9
:1019C000FFF74CFF10F0800F04D08022554B1033EE
:1019D0001A6003E08022534B14331A604206100E43
:1019E000FFF73CFF40224F4B10331A60FFF736FFE2
:1019F0000A00A1F10103D9B2DED14022494B1433D0
:101A00001A6000BD00B5082100208022454B10332C
:101A10001A6015E04206100E4022424B14331A6041
:101A2000FFF71CFF40223F4B10331A60FFF716FFF1
:101A30003C4A0832126812F0800F01D040F00100D9
:101A40000A00A1F10103D9B2E4D14022354B14338D
:101A50001A6000BD70B506460C461546FFF707FF35
:101A600008B9002070BD3046FFF7A3FFFFF778FFED
:101A700018B9FFF727FF0020F4E72046FFF799FF8A
:101A8000FFF76EFF2846FFF794FFFFF769FFFFF7A8
:101A900019FFFFF7E5FE0120E4E730B505460C46E7
:101AA000FFF7E5FE08B9002030BD2846FFF781FFAB
:101AB000FFF756FF18B9FFF705FF0020F4E72046AF
:101AC000FFF777FFFFF74CFFFFF7FCFEFFF7C8FEBD
:101AD0000120E9E770B504460D46FFF7C8FE08B9D6
:101AE000002070BD2046FFF764FFFFF739FF18B9EB
:101AF000FFF7E8FE0020F4E72846FFF75AFFFFF75C
:101B00002FFFFFF7B4FE601CC0B2FFF752FFFFF7D4
:101B100027FFFFF777FF0646FFF708FFFFF7D2FE24
:101B20003046DEE7000C014010B500226B21D020CA
:101B3000FFF790FFC4B207221921D020FFF78AFFD8
:101B40002044C4B203221A21D020FFF783FF20448F
:101B5000C4B210221B21D020FFF77CFF2044C4B266
:101B600009221C21D020FFF775FF2044C4B2204673
:101B700010BD10B53B21D020FFF7ACFFFE49087027
:101B80003C21D020FFF7A6FFFB4948703D21D02023
:101B9000FFF7A0FFF84988703E21D020FFF79AFF99
:101BA000F549C8703F21D020FFF794FFF249087132
:101BB0004021D020FFF78EFFEF4948714321D0200C
:101BC000FFF788FFEC4908724421D020FFF782FF1D
:101BD000E94948724521D020FFF77CFFE649887229
:101BE0004621D020FFF776FFE349C8724721D02075
:101BF000FFF770FFE04908734821D020FFF76AFF24
:101C0000DD49487310BD2DE9F05FFFF7B2FFDA48F8
:101C10004078D949097840EA0120D8490988401A12
:101C200000B2D7490880D448C078D349897840EABF
:101C30000120D2494988401A00B2D1494880CE4893
:101C40004079CD49097940EA0120CC498988401A78
:101C500000B2CB498880C848407AC749097A40EA2F
:101C6000012000B2C7490880C348C07AC249897AB6
:101C700040EA012000B2C3494880BF48407BBE49CA
:101C8000097B40EA012000B2BE498880BE49B1F913
:101C9000000002F0A9F80446BC4ABD4B02F034F83B
:101CA00082468B46B749B1F9000002F09DF8044620
:101CB000B64AB74B02F028F8804652465B4602F01F
:101CC0001DF8064602F012F9B2490860AE49B1F9B2
:101CD000020002F089F80446AC4AAD4B02F014F859
:101CE00006460F46A749B1F9020002F07DF8044606
:101CF000A64AA74B02F008F8804632463B4601F060
:101D0000FDFF824602F0F2F8A24948609E49B1F90F
:101D1000040002F069F806469C4A9D4B01F0F4FF6E
:101D2000804689469749B1F9040002F05DF80646FD
:101D3000964A974B01F0E8FF044642464B4601F0B5
:101D4000DDFF824602F0D2F892498860924800781E
:101D500000284CD19148007868B900208749088054
:101D6000488088808E4908608E4908608E490860E6
:101D700001208A4908708248B0F900008849096842
:101D80000844874908607E48B0F90200854909681F
:101D90000844844908607A48B0F904008249096817
:101DA0000844814908607D480078C8281AD17C48D9
:101DB00000687A49097890FBF1F000B26F49088019
:101DC000784800687549097890FBF1F000B26B49DA
:101DD0004880002088807149087001206E49087091
:101DE000BDE8F09F6D480078401C6C49087000BF4A
:101DF000F6E72DE9F0414FF4FA67002400250026AC
:101E00000020614908804880888028E0FFF7B1FE03
:101E10005948407A5849097A40EA012000B25949A4
:101E200008805548C07A5449897A40EA012000B2B6
:101E3000544948805048407B4F49097B40EA012083
:101E400000B2504988800846B0F9000004440846B2
:101E5000B0F9020005440846B0F904000644380011
:101E6000A7F10107D2D14FF4FA6094FBF0F000B271
:101E7000454908804FF4FA6095FBF0F000B24880C5
:101E80004FF4FA6096FBF0F000B28880BDE8F08174
:101E90002DE9F04F87B0882000F051F9AF2000F015
:101EA0004EF91C2000F04BF93548B0F90090C9F309
:101EB0000725284600F043F96019C4B209F0FF0570
:101EC000284600F03CF96019C4B22D48B0F902A0D0
:101ED000CAF30725284600F032F96019C4B20AF0A7
:101EE000FF05284600F02BF96019C4B22448B0F968
:101EF00004B0CBF30725284600F021F96019C4B2DD
:101F00000BF0FF05284600F01AF96019C4B21D480D
:101F1000B0F9000006900698C0F30725284600F0A7
:101F20000EF96019C4B20698C5B2284600F007F948
:101F30006019C4B21348B0F9020005900598C0F3C7
:101F40000725284600F0FBF86019C4B20598C5B211
:101F5000284600F0F4F86019C4B20A48B0F9040049
:101F600004900498C0F30725284600F0E8F86019AB
:101F7000C4B20498C5B219E0980300206E00002096
:101F8000560000205C00002068000020360C7ACA51
:101F9000C573413F8C030020440000205400002002
:101FA000480000204C00002050000020284600F08F
:101FB000C6F86019C4B200263512284600F0BFF8F2
:101FC0006019C4B23546284600F0B9F86019C4B2A9
:101FD00000273D12284600F0B2F86019C4B23D4611
:101FE000284600F0ACF86019C4B2B0464FEA282584
:101FF000284600F0A4F86019C4B24546284600F00F
:102000009EF86019C4B22E4908682E4901F0A0FD5F
:10201000009001F007FF00B202900298C0F307257C
:10202000284600F08CF86019C4B20298C5B2284660
:1020300000F085F86019C4B221494868214901F0CF
:1020400087FD009001F0EEFE00B201900198C0F310
:102050000725284600F073F86019C4B20198C5B28C
:10206000284600F06CF86019C4B215498868164912
:1020700001F06EFD009001F0D5FE00B203900398D0
:10208000C0F30725284600F05AF86019C4B2039837
:10209000C5B2284600F053F86019C4B2002000F021
:1020A0004EF8002000F04BF8002000F048F8002027
:1020B00000F045F8204600F042F807B0BDE8F08F88
:1020C0002C0400200000C8420000204100B585B06B
:1020D000012144F20400FEF7C3FE4FF40070ADF896
:1020E000100018208DF8130003208DF8120004A9A9
:1020F000D248FEF701FC4FF48060ADF810000420D8
:102100008DF8130004A9CD48FEF7F6FB4FF4E1303B
:1021100000900020ADF80400ADF80600ADF808000E
:10212000ADF80C000C20ADF80A006946C448FFF772
:10213000CCF80121C248FFF754F905B000BD10B535
:1021400004462146BE48FFF7BCF900BFBC480088E2
:1021500010F0800FFAD0204610BD70B504460D4631
:10216000E1B2B748FFF7ADF900BFB548008810F0FD
:10217000800FFAD0204670BDF0B503460D461646D6
:10218000002729460A2E03D0002008702846F0BDFB
:1021900033B9302001F8010B002008702846F6E71B
:1021A000002B03DA2D2001F8010B5B4242F2107282
:1021B0000DE093FBF2F404B937B104F1300001F8FB
:1021C000010B04FB123301270A2092FBF0F2002AD4
:1021D000EFDC002008702846D9E70FB470B586B050
:1021E00006460CA8019073E00B9800785C281CD17F
:1021F0000B98401C0B9000786E2809D072280FD1E4
:102200000D213046FFF75DF90B98401C0B900BE059
:102210000A213046FFF755F90B98401C0B9003E05C
:102220000B98401C0B9000BF4BE00B9800782528C2
:1022300040D10B98401C0B900078642818D073286C
:1022400033D1019810C801900BE021783046FFF798
:1022500038F900BF40213046FFF7A1F90028F9D036
:10226000641C20780028F0D10B98401C0B9020E0D3
:10227000019820C801900A2202A92846FFF77CFF96
:1022800002AC0BE021783046FFF71BF900BF40217C
:102290003046FFF784F90028F9D0641C2078002824
:1022A000F0D10B98401C0B9003E00B98401C0B9056
:1022B00000BF06E00B9810F8011B0B903046FFF7AB
:1022C00000F900BF40213046FFF769F90028F9D036
:1022D0000B980078002887D106B070BC5DF814FB1D
:1022E00000B585B001212020FEF7BAFD0121480488
:1022F000FEF7C3FD01210846FEF7B2FD01210820CB
:10230000FEF7C9FB2020ADF8100018208DF813004F
:1023100003208DF8120004A94A48FEF7EDFA402088
:10232000ADF8100004208DF8130004A94548FEF70D
:10233000E3FA4FF4165000900020ADF80400ADF819
:102340000600ADF80800ADF80C000C20ADF80A004E
:1023500069463D48FEF7B9FF012240F225513A484F
:10236000FFF74BF801213848FFF73BF805B000BDF7
:1023700010B5044621463448FFF7A3F800BF3248A1
:10238000008810F0800FFAD0204610BD00B585B04F
:1023900001212020FEF764FD01218804FEF76DFD78
:1023A00001210846FEF75CFD01212848FEF773FB7A
:1023B0004FF48070ADF8100018208DF81300032042
:1023C0008DF8120004A91F48FEF796FA4FF400702A
:1023D000ADF8100004208DF8130004A91948FEF789
:1023E0008BFA4FF4E13000900020ADF80400ADF816
:1023F0000600ADF80800ADF80C000C20ADF80A009E
:1024000069461348FEF761FF012240F2255110484A
:10241000FEF7F3FF01210E48FEF7E3FF05B000BD14
:1024200010B5044621460A48FFF74BF800BF08489C
:10243000008810F0800FFAD0204610BD000801403F
:1024400000380140001401400044004030001400F6
:102450000048004070B504460825A902FE48FEF772
:10246000F6FA00BF4FF48041FB48FEF7F2FA00BFD6
:102470001AE014F0800F05D04FF40041F648FEF743
:10248000E6FA04E04FF40041F348FEF7E2FA4FF4B5
:102490008041F148FEF7DBFA00BF4FF48041EE487F
:1024A000FEF7D7FA6006040E2800A5F10101CDB2AF
:1024B000DFD170BD70B504460825A902E648FEF7D5
:1024C000C8FAE902E448FEF7C4FA00BF1AE014F0C3
:1024D000800F05D04FF40041DF48FEF7B8FA04E062
:1024E0004FF40041DC48FEF7B4FA4FF48041DA487B
:1024F000FEF7ADFA00BF4FF48041D748FEF7A9FAC6
:102500006006040E2800A5F10101CDB2DFD170BD37
:1025100070B504460D4605F1B001C8B2FFF7CAFF19
:10252000102141EA1410FFF7C5FF04F00F00FFF778
:10253000C1FF70BD70B50646002415E004F1B0017E
:10254000C8B2FFF7B7FF0120FFF7B4FF1020FFF775
:10255000B1FF002504E03046FFF77CFF681CC5B2E0
:10256000802DF8DB601CC4B2082CE7DB70BD70B5B1
:10257000002415E004F1B001C8B2FFF79BFF012071
:10258000FFF798FF1020FFF795FF002504E00020DB
:10259000FFF760FF681CC5B2802DF8DB601CC4B279
:1025A000082CE7DB70BD07E040F2375100BF0A009E
:1025B000A1F10101FBD1401E0028F5D1704710B5F3
:1025C00004462046FFF776FF10BD70B50446254649
:1025D000E11704EB11710911A4EB0111C8B2FFF767
:1025E00069FF2546E11704EB1171091101F1100093
:1025F000FFF760FF70BD10B504462020FFF75AFFBB
:102600002046FFF757FF10BD70B505460C46212048
:10261000FFF750FF2846FFF74DFF2046FFF74AFF20
:1026200070BD70B505460C462220FFF743FF2846D3
:10263000FFF740FF2046FFF73DFF70BD10B5044691
:1026400044F04000FFF736FF10BD10B5044681206E
:10265000FFF730FF2046FFF72DFF10BD10B50446F1
:102660008D20FFF727FF44F01000FFF723FF10BD78
:1026700010B5044644F0A000FFF71CFF10BD10B5D4
:10268000044644F0A400FFF715FF10BD10B5044642
:1026900044F0A600FFF70EFF10BD10B50446A820B9
:1026A000FFF708FF2046FFF705FF10BD10B50446F1
:1026B00044F0AE00FFF7FEFE10BD10B5044644F036
:1026C000B000FFF7F7FE10BD10B5044644F0C0009F
:1026D000FFF7F0FE10BD10B50446D320FFF7EAFE69
:1026E0002046FFF7E7FE10BD10B50446D520FFF7E2
:1026F000E1FE2046FFF7DEFE10BD10B50446D920EE
:10270000FFF7D8FE2046FFF7D5FE10BD10B50446F2
:10271000DA20FFF7CFFE44F00200FFF7CBFE10BD3A
:1027200010B50446DB20FFF7C5FE2046FFF7C2FECA
:1027300010BD10B5E320FFF7BDFE10BD08B50121A7
:102740000820FEF78DFB4FF47040ADF80000032029
:102750008DF8020010208DF8030069463E48FEF710
:10276000CBF84FF480413C48FEF771F94FF48051AB
:102770003948FEF76EF93220FFF715FF4FF480510C
:102780003548FEF764F9AE20FFF794FED520FFF739
:1027900091FE8020FFF78EFEA820FFF78BFE3F20E2
:1027A000FFF788FED320FFF785FE0020FFF782FEAB
:1027B0004020FFF77FFE8D20FFF77CFE1420FFF7FF
:1027C00079FE2020FFF776FE0220FFF773FEA1209E
:1027D000FFF770FEC820FFF76DFEDA20FFF76AFEF4
:1027E0001220FFF767FE8120FFF764FECF20FFF77E
:1027F00061FED920FFF75EFEF120FFF75BFEDB20D4
:10280000FFF758FE4020FFF755FEA420FFF752FEC9
:10281000A620FFF74FFEAF20FFF74CFE0020FFF78A
:1028200089FE00210846FFF773FE08BD70B5054616
:102830000C4621462846FFF76BFE2046E11704EBC5
:102840005171C910A4EBC10201219140CEB2B02157
:1028500001EBE401C8B201E0000C0140FFF72AFEE1
:10286000102141EA1510FFF725FE05F00F00FFF7D4
:1028700021FE3046FFF7EEFD70BD2DE9F041054623
:102880000E464FF4047095FBF0F005B24FF404705F
:1028900096FBF0F006B201276CE007F1B001C8B278
:1028A000FFF708FE0120FFF705FE1020FFF702FEEC
:1028B000DDB9002404E00020FFF7CCFD601CC4B2A9
:1028C0003E2CF8DB3E2404E0FF20FFF7C3FD601C34
:1028D000C4B2402CF8DB402404E00020FFF7BAFD2E
:1028E000601CC4B27F2CF8DB42E0002D16DD002412
:1028F00004E00020FFF7AEFD601CC4B2C5F13E004D
:10290000A042F6DCC5F13E00C4B204E0FF20FFF7B0
:10291000A1FD601CC4B23E2CF8DB29E0002D27DAB3
:10292000002404E00020FFF795FD601CC4B23E2C9B
:10293000F8DB3E2404E0FF20FFF78CFD601CC4B2EE
:10294000402CF8DB402404E0FF20FFF783FD601CEF
:10295000C4B2C5F14000A042F6DCC5F14000C4B2EB
:1029600004E00020FFF776FD601CC4B27F2CF8DB8A
:10297000781CC7B2032F90DB05276CE007F1B0018C
:10298000C8B2FFF797FD0120FFF794FD1020FFF775
:1029900091FDDEB9002404E00020FFF75BFD601C20
:1029A000C4B23E2CF8DB3E2404E0FF20FFF752FDCA
:1029B000601CC4B2402CF8DB402404E00020FFF788
:1029C00049FD601CC4B27F2CF8DB42E0002E16DD0E
:1029D000002404E00020FFF73DFD601CC4B2C6F1F6
:1029E0003E00A042F6DCC6F13E00C4B204E0FF2087
:1029F000FFF730FD601CC4B23E2CF8DB29E0002E4E
:102A000027DA002404E00020FFF724FD601CC4B294
:102A10003E2CF8DB3E2404E0FF20FFF71BFD601C8A
:102A2000C4B2402CF8DB402404E0FF20FFF712FD85
:102A3000601CC4B2C6F14000A042F6DCC6F1400002
:102A4000C4B204E00020FFF705FD601CC4B27F2C77
:102A5000F8DB781CC7B2072F90DBBDE8F0812DE9C9
:102A6000F0470446884615464FF000090026002727
:102A700041462046FFF74CFD1CE0E85D203800F0A1
:102A8000FF097E2C04DD002408F1010000F0FF089E
:102A9000002609E009EB4901FE4A02EB4101885D8D
:102AA000FFF7D8FC701CC6B2062EF3DBA01DC4B223
:102AB000781CC7B2E85D0028DFD1BDE8F0872DE9BA
:102AC000F04706460F46904600250024A14631E017
:102AD00018F809002038C5B2782E02DD0026781CCF
:102AE000C7B239463046FFF713FD002407E004EB78
:102AF0000511E94A505CFFF7ADFC601CC4B2082C1C
:102B0000F5DB781CC1B23046FFF702FD002408E077
:102B100004EB05110831E04A505CFFF79BFC601C98
:102B2000C4B2082CF4DB06F10800C6B209F10100BA
:102B300000F0FF0918F809000028C9D1BDE8F087A6
:102B40002DE9F04781460F469046002400260125D6
:102B50006BE00024012513E0D048005D18F8061052
:102B600088420BD1CD49601C095C701C18F800002C
:102B7000814203D1C4EBC400450005E0A01CC4B2EF
:102B8000C648005D7F28E7DC00BFB9F1760F03DDA2
:102B90004FF00009781CC7B239464846FFF7B8FC29
:102BA000012D1FD039464846FFF7B2FC002406E04D
:102BB000BB49485DFFF74EFC6D1C601CC4B20E2C77
:102BC000F6DB781CC1B24846FFF7A2FC002406E001
:102BD000B349485DFFF73EFC6D1C601CC4B20E2C6F
:102BE000F6DB1CE0701CC6B239464846FFF790FC85
:102BF000002404E00020FFF72DFC601CC4B2102C60
:102C0000F8DB781CC1B24846FFF782FC002404E0E0
:102C10000020FFF71FFC601CC4B2102CF8DB09F188
:102C20000E0000F0FF09B01CC6B218F8060000281C
:102C30008FD1BDE8F087F8B506460F46154600244B
:102C400027E0285D7F2814DD285D8DF80000601CDA
:102C5000285C8DF8010000208DF802006A46394694
:102C60003046FFF76DFF06F10E00C6B2A01CC4B2DD
:102C70000FE0285D8DF8000000208DF801006A4605
:102C800039463046FFF71BFF06F10800C6B2601C4C
:102C9000C4B2285D0028D4D1F8BDF8B505460C466D
:102CA0001646E006040E8DF8006000208DF8010045
:102CB0006A4629462046FFF7D2FEF8BDF8B507461A
:102CC0000E4615460024F006060E27E0285D7F28F4
:102CD00014DD285D8DF80000601C285C8DF8010073
:102CE00000208DF802006A4639463046FFF728FF7B
:102CF00006F10E00C6B2A01CC4B20FE0285D8DF82C
:102D0000000000208DF801006A4639463046FFF782
:102D1000D6FE06F10800C6B2601CC4B2285D0028C9
:102D2000D4D1F8BD2DE9FC4107460E46144698461D
:102D30000025002000900190F006060E42F210706F
:102D4000B4FBF0F00A21B0FBF1F201FB12008DF8A8
:102D500000004FF47A70B4FBF0F0B0FBF1F201FB2D
:102D600012008DF801006420B4FBF0F0B0FBF1F22A
:102D700001FB12008DF802000A20B4FBF0F0B0FB5A
:102D8000F1F201FB12008DF803000A20B4FBF0F110
:102D900000FB11408DF8040000BF07E01DF805009E
:102DA0003030C0B20DF80500681CC5B2052DF5DB4A
:102DB000C8F105006946421839463046FFF77FFEE4
:102DC000BDE8FC812DE9FF5F86B014461D464FF03B
:102DD000010A4FF000000390049005904FF00109A4
:102DE000804600BF8346024613462046294601F02E
:102DF00069F809D285F00040CDE9004020460199EC
:102E000001F029F8804604E02046294601F023F825
:102E10008046404600F0E8FF22462B46CDE90001FF
:102E200000F06FFF06460F4600221E4B3046394623
:102E300000F06AFFCDE9000101F02CF8834607E0BD
:102E400009EB89004FEA40090AF1010000F0FF0A8E
:102E50000A2098FBF0F090FBF9F00028F0D142F244
:102E6000107098FBF0F00A2190FBF1F201FB1200C8
:102E7000C0B28DF80C004FF47A7098FBF0F090FB24
:102E8000F1F201FB1200C0B28DF80D00642098FB36
:102E9000F0F009E0524100083D4500087A4300087F
:102EA000994300080088C34090FBF1F201FB120037
:102EB000C0B28DF80E000A2098FBF0F090FBF1F202
:102EC00001FB1200C0B28DF80F000A2098FBF0F150
:102ED00000FB1180C0B28DF810002E208DF811007B
:102EE0004FF47A70BBFBF0F00A21B0FBF1F201FB6A
:102EF00012008DF812006420BBFBF0F0B0FBF1F281
:102F000001FB12008DF813000A20BBFBF0F0B0FBB0
:102F1000F1F201FB12008DF814000A20BBFBF0F166
:102F200000FB11B08DF8150000211498801D03AA34
:102F30001154894608E003A810F80900303003A9AD
:102F400001F8090009F10109B9F10A0FF3DB0022C8
:102F500013462046294600F0B5FF08D20AF10100C9
:102F600000F0FF0A2D20CAF1050103AA50542E20BB
:102F70008DF8110000211498801D03AA1154CAF184
:102F8000050003A94218DDE90610FFF768FD0AB045
:102F9000BDE8F09F2DE9F04F89B08246894614467E
:102FA0001D46DDF84CB04FF0010007904FF00000D7
:102FB0000490059006904FF00106074600BF80463A
:102FC0004FEAC9604FEA10692046294600F043FFE6
:102FD0000746384600F019FF22462B46CDE900018E
:102FE00000F08FFECDE902010022FE4BDDE9020177
:102FF00000F08AFECDE9000100F04CFF804606E0BB
:1030000006EB860046000798401CC0B207900A20D5
:10301000B7FBF0F0B0FBF6F00028F1D142F21070EF
:10302000B7FBF0F00A21B0FBF1F201FB12008DF8C2
:1030300010004FF47A70B7FBF0F0B0FBF1F201FB37
:1030400012008DF811006420B7FBF0F0B0FBF1F234
:1030500001FB12008DF812000A20B7FBF0F0B0FB64
:10306000F1F201FB12008DF813002E208DF81500EF
:103070004FF47A70B8FBF0F0B0FBF1F201FB1200F4
:103080008DF816006420B8FBF0F0B0FBF1F201FB04
:1030900012008DF817000A20B8FBF0F0B0FBF1F237
:1030A00001FB12008DF818000A20B8FBF0F100FBBC
:1030B00011808DF8190000210BF1060004AA1154AB
:1030C000002605E004A8805D303004A98855761CF0
:1030D0000A2EF7DB2E208DF8150000210BF10600DB
:1030E00004AA11541298C0F1050004A942185146CF
:1030F0004846FFF7E4FC09B0BDE8F08F2DE9F05F2A
:1031000006460F4690461C46DDF828A04FF0000BFF
:10311000E11704EB5171C910B4EBC10105D1204690
:10312000E11704EB5171CD1005E02046E11704EBE7
:103130005171C9104D1C3D4614E029463046FFF739
:10314000E7F9B1460AE059460BF1010B1AF8010004
:10315000FFF780F909F1010000F0FF09C145F2DB3A
:10316000681CC5B2A542E8DDBDE8F09F70B5002639
:10317000002411E021461020FFF7CAF9102507E0CE
:103180003146761C984A505CFFF764F9681CC5B25A
:10319000702DF5DB601CC4B2082CEBDB70BD70B584
:1031A0000026002411E021461C20FFF7B1F91C2560
:1031B00007E03146761C8D4A505CFFF74BF9681CDE
:1031C000C5B2582DF5DB601CC4B2082CEBDB70BD1A
:1031D000F8B506460F4614460020009002250DE083
:1031E0000A2094FBF0F100FB11403030C0B20DF822
:1031F00005000A2094FBF0F0C4B26D1E002DEFDA3A
:103200006A4639463046FFF75AFCF8BDF8B506461F
:103210000F4614460020009002250DE00A2094FB82
:10322000F0F100FB11403030C0B20DF805000A206B
:1032300094FBF0F0C4B26D1E002DEFDA6A463946F9
:103240003046FFF70CFCF8BD2DE9F04105460F466E
:10325000164600BF05EB45014906080E3946FFF743
:1032600057F900240AE006F1100101EB4101604A20
:1032700002EB4101085DFFF7EDF8641C062CF2DB60
:10328000BDE8F0812DE9F04705460E4614460A20B8
:1032900094FBF0F100FB1140C7B20A2094FBF0F060
:1032A0000A2190FBF1F201FB120000F0FF086420FC
:1032B00094FBF0F000F0FF093A463146A81CC0B27A
:1032C000FFF7C2FF42463146681CC0B2FFF7BCFFA1
:1032D0004A4631462846FFF7B7FFBDE8F0872DE99B
:1032E000F05F05468B4616463446002C00DA6442F1
:1032F0004FF47A7094FBF0F0C7B24FF47A7094FBFD
:10330000F0F100FB1140642190FBF1F000F0FF08A8
:10331000642094FBF0F100FB11400A2190FBF1F0D6
:1033200000F0FF090A2094FBF0F100FB114000F0CF
:10333000FF0A3A4659462846FFF786FF4246594655
:10334000681CC0B2FFF780FF4A465946A81CC0B2AD
:10335000FFF77AFF52465946E81CC0B2FFF774FFE8
:10336000BDE8F09F2DE9F05F05460E46144642F297
:103370001070B4FBF0F0C7B242F21070B4FBF0F181
:1033800000FB11404FF47A71B0FBF1F000F0FF0840
:103390000846B4FBF0F100FB11406421B0FBF1F0F2
:1033A00000F0FF096420B4FBF0F100FB11400A219A
:1033B000B0FBF1FA0A20B4FBF0F100FB114B3A46E6
:1033C00031462846FFF740FF42463146681CC0B2EE
:1033D000FFF73AFF4A463146A81CC0B2FFF734FF58
:1033E000524607E00088C340740000202D4B0008BF
:1033F000524100083146E81CC0B2FFF725FF5A468B
:103400003146281DC0B2FFF71FFFBDE8F09F000046
:1034100008B501210846FDF716FD01214FF406709D
:10342000FDF71EFD4FF40040FDF781FC0220ADF8D2
:10343000000000208DF8030069465448FDF75CFA4F
:103440007E20ADF8000000208DF80300694650484A
:10345000FDF752FA08BD00B591B04E48FDF7C4F82B
:103460004D4806904D48079000200890072009908D
:1034700000200A9080200B9040000C9080000D905E
:1034800020200E9000020F900020109006A94148C5
:10349000FDF74CF901213F48FDF773F90020019039
:1034A00001208DF808008DF809004FF4602003908A
:1034B0000020049007208DF8140001A936484C38EC
:1034C000FCF79BFE05230722092133484C38FCF703
:1034D0002CFF052301220A212F484C38FCF725FF39
:1034E000052302220B212C484C38FCF71EFF052334
:1034F00003220C2128484C38FCF717FF052304222F
:103500000D2125484C38FCF710FF05231A460E21E3
:1035100021484C38FCF709FF052306220F211E48DD
:103520004C38FCF702FF00211B484C38FCF759FFD0
:10353000012119484C38FCF797FE012116484C38F8
:10354000FCF787FE14484C38FCF7A5FE00BF124874
:103550004C38FCF7A5FE0028F9D10F484C38FCF791
:10356000A9FE00BF0C484C38FCF7A9FE0028F9D191
:10357000012109484C38FCF7ACFE11B000BD10B574
:10358000FFF746FFFFF767FF10BD0000000C01408A
:1035900000100140080002404C240140A603002016
:1035A00070B50546002405E0601CC4B2C82C01DDDE
:1035B000002070BD02214E48FDF70EFE0028F3D01A
:1035C00029464B48FDF7B5FD002405E0601CC4B258
:1035D000C82C01DD0020ECE701214548FDF7FCFD8A
:1035E0000028F3D04248FDF7A6FDC0B2E1E700B5E0
:1035F00087B0012141F20D00FDF732FCA020ADF8AB
:10360000180003208DF81A0018208DF81B0006A959
:103610003848FDF771F94020ADF8180004208DF806
:103620001B0006A93348FDF767F91020ADF8180014
:1036300003208DF81A0010208DF81B0006A92D48D4
:10364000FDF75AF94FF40060ADF8180003208DF82B
:103650001A0010208DF81B0006A92648FDF74CF92A
:103660000120ADF8180003208DF81A0048208DF8CD
:103670001B0006A92048FDF73FF90020ADF8040023
:103680004FF48270ADF806000020ADF80800ADF8E8
:103690000A00ADF80C004FF40070ADF80E001020D9
:1036A000ADF810000020ADF812000720ADF81400AE
:1036B00001A90F48FDF764FC01210D48FDF703FD4A
:1036C000FF20FFF76DFF07B000BD10B504460848A6
:1036D00000884FF6C77108400549088008460088F1
:1036E0002043088001210248FDF7EDFC10BD0000D9
:1036F0000030014000080140000C014010B54FF4BB
:103700000061AC48FDF7A5F91021AA48FDF79FF923
:10371000FFF76DFF10BD2DE9F04107460D46164637
:103720001021A448FDF795F93846FFF739FF804688
:10373000002405E0FF20FFF733FF2855601CC4B2CA
:10374000B442F7DB10219B48FDF781F94046BDE804
:10375000F0812DE9F04107460C46154610219548A9
:10376000FDF777F93846FFF71BFF8046002605E096
:1037700014F8010BFFF714FF701CC6B2AE42F7DB62
:1037800010218C48FDF763F94046BDE8F0811CB577
:1037900089A103C9CDE900010820FFF796FF0522A2
:1037A00069463020FFF7D5FF052269461020FFF754
:1037B000B2FF002406E01DF80400A52800D003E0B5
:1037C000601CC4B2052CF6DB00BF052C01D0012023
:1037D0001CBD0020FCE770B505460C46102175485D
:1037E000FDF737F92846FFF7DBFE06462046FFF7D0
:1037F000D7FE10216F48FDF72AF9304670BD70B52D
:10380000044610216B48FDF724F92046FFF7C8FE57
:10381000FF20FFF7C5FE054610216648FDF717F9A2
:10382000284670BD70B505461820FFF74EFF4FF4CF
:1038300000616048FDF70DF920222946A020FFF71E
:1038400088FF4FF400615B48FDF701F900BF0121DB
:103850005B48FDF7E2F80028F9D10720FFF7CFFF1A
:10386000044621462720FFF7B6FF14F0100F05D0BD
:10387000FF21E120FFF7AFFF102070BD14F0200FF3
:1038800001D02020F9E7FF20F7E770B504461020AB
:10389000FFF71BFF0720FFF7B2FF05462946272049
:1038A000FFF799FF15F0400F0AD020222146612032
:1038B000FFF731FFFF21E220FFF78DFF002070BDF1
:1038C0000120FCE710B504464FF400613948FDF7CC
:1038D000C0F805223B493020FFF73BFF05223A495B
:1038E0002A20FFF736FF01212120FFF774FF012175
:1038F0002220FFF770FF1A212420FFF76CFF2821F8
:103900002520FFF768FF0F212620FFF764FF012C19
:1039100008D120213120FFF75EFF0F212020FFF783
:103920005AFF41E0022C08D120213120FFF753FF3C
:103930000E212020FFF74FFF36E0032C1AD1FF2184
:10394000E120FFF748FFFF21E220FFF744FF0F21AE
:103950002020FFF740FF5020FFF722FE7320FFF7E3
:103960001FFE01213C20FFF736FF07213D20FFF716
:1039700032FF19E00E212020FFF72DFFFF21E1206B
:10398000FFF729FFFF21E220FFF725FF5020FFF777
:1039900007FE7320FFF704FE01213C20FFF71BFF09
:1039A00007213D20FFF717FF4FF400610148FDF7A5
:1039B0004EF810BD00080140A5A5A5A5A500000072
:1039C000000C014074030020790300204FF0E02137
:1039D000096921F004014FF0E0221161C21700EBE8
:1039E0005272D210364B1A70194609784FF47A7217
:1039F0005143344A118070470146324A12884A4383
:103A00004FF0E0235A6100229A6101221A6100BF3F
:103A10004FF0E022106910F0010F02D010F4803F47
:103A2000F6D000224FF0E0231A619A6170470146F8
:103A3000234A12784A434FF0E0235A6100229A61E8
:103A400001221A6100BF4FF0E022106910F0010F4F
:103A500002D010F4803FF6D000224FF0E0231A612C
:103A60009A617047002106E0002200E0521CB2F586
:103A7000FA7FFBD3491C8142F6D370471248C069D4
:103A800040F008001049C8618020104908800020DB
:103A9000091D08800D49243108804FF6FF700B493D
:103AA0002C3108805320091F088001200749143158
:103AB00008800648008840F00100044908807047EB
:103AC0007E0300208003002000100240000C004014
:103AD00008B501210420FDF7C3F94FF48070ADF85B
:103AE000000003208DF8020018208DF803006946BD
:103AF0001548FCF701FF0620FDF7EDF908BD10B5EC
:103B0000FFF7E6FF4820FFF761FFFDF787FE40F66D
:103B1000FF70FFF7A7FFFEF711FEFF20FEF70AFD7B
:103B2000FFF72DFDFDF77AFEFFF7E8FDFFF72FFE0B
:103B30000420FFF7C7FE10BD10B5FDF7F5FFFFF736
:103B400026FE0249C87010BD00080140880300200D
:103B500080EA010210B502F00042400026D04B007E
:103B600023D04FEA106101EB1361C0F35600C3F399
:103B7000560340F4000043F40003A0FB0330A1F11E
:103B80007F014FEA00401C0401D000F1010050EA1F
:103B9000134001D44000491EC3B20C0604EBD01000
:103BA000401C4008802B02D003E0002010BD20F014
:103BB0000100002900DA0020104310BD2DE9FE4F5E
:103BC000074681EA0300C00F0E46019021F0004134
:103BD00023F00044B81AA14105D2384631461746B1
:103BE0001E460B46024623F00040104304D13846DF
:103BF000314603B0BDE8F08F350DC5F30A00C3F3BD
:103C00000A510290401A0090402868DAC3F313006A
:103C100040F4801B0198924620B10023D2EB030AA6
:103C200063EB0B0B00985946C0F14002504600F080
:103C300079F980460C4650465946009A00F091F9B1
:103C4000C0197141EF1785EA11533B4340D0019AE7
:103C500052B3009A012A11DC0022801A4FF000436F
:103C600061EB055103EA05538018CDE9002341F5C6
:103C700080114246234600F0C9F9BAE72E05002517
:103C8000401B61EB0601401941F5801200185241BA
:103C90002818A6F5001343EB020140EAD47029432B
:103CA00018EB0808644113E064084FEA38084FF045
:103CB000000244EAC0744FEA0553801A61EB030125
:103CC000801841F5801149084FEA300080185941A9
:103CD0004246234603B0BDE8F04F00F08AB9019890
:103CE000012240000023D0EB020263EBE073019855
:103CF0004FEAE074381A66EB0401EBE783F0004307
:103D00005CE781F0004159E72DE9FE4F81EA0304A9
:103D100021F0004504F0004423F000414FF0000A78
:103D2000009450EA050302D052EA010304D10020B6
:103D3000014603B0BDE8F08FC1F30A53C5F30A543E
:103D40001C44A0FB02B3C5F3130545F4801CC1F36A
:103D5000130141F480180CFB023300FB083EA4F26F
:103D6000F334810A930A41EA8C5143EA885301945F
:103D7000A1FB03474FEA9C2505FB03734FEA9826F6
:103D800001FB06373D05260545EA1435BBEB060168
:103D90006EEB0503850E920E45EA8C1542EA8812F9
:103DA000A5FB0206261E67EB00070C0D44EA033450
:103DB000A41947EB1350C1F313064FF00003194643
:103DC0004FEA033343EA165343EA0403019CE5FB3D
:103DD0000201A4F10C040294009C4FEA0632CDE9E2
:103DE00000A400F013F9A4E70EB5C10F80EAE0705B
:103DF0000844CA07002140F233438DE80E000A460A
:103E00000B4600F003F903B000BD0EB540F233419C
:103E100002910021CDE900110A460B4600F0F6F8A8
:103E200003B000BD00F0004220F00040C10DC0F31F
:103E3000160040F400007F2901DA0020704796291F
:103E400003DCC1F19601C84001E096398840002AA0
:103E5000F4D04042704770B5C1F30A5201F00045FA
:103E60000024C1F3130140F2FF3341F480119A4260
:103E700001DA002070BD40F233439A42A2F233428D
:103E800003DC524200F05DF800E090402C43F1D09A
:103E9000404270BDC1F30A52C1F3130140F2FF3337
:103EA00041F480119A4201DA0020704740F2334316
:103EB0009A42A2F2334202DC524200F042B89040F1
:103EC0007047000030B5002904DB4FF00044404249
:103ED00064EB0101002B04DB4FF00044524264EB21
:103EE00003038B4208BF824230BD000001F0004254
:103EF00030B421F0004150EA010306D00B0DA3F5C8
:103F00006073C1F31301002B02DC30BC002070474A
:103F1000440F44EAC104C100A01830BC00EBC350F8
:103F200000F031B8202A04DB203A00FA02F1002028
:103F300070479140C2F1200320FA03F319439040E7
:103F40007047202A04DB203A21FA02F00021704752
:103F500021FA02F3D040C2F12002914008431946F1
:103F60007047202A06DBCB17203A41FA02F043EAD9
:103F7000E071704741FA02F3D040C2F12002914053
:103F80000843194670470029A8BF7047401C4900E4
:103F900008BF20F00100704710B4B0FA80FC00FAAE
:103FA0000CF050EA010404BF10BC704749B1CCF1D9
:103FB000200421FA04F411FA0CF118BF0121214365
:103FC0000843A3EB0C01CB1D0106000A002BBEBF6A
:103FD000002010BC704700EBC35010440029A4BF60
:103FE00010BC7047401C490008BF20F0010010BC05
:103FF000704710B5002B08DA401C41F100019218FF
:104000005B411A4301D120F0010010BD2DE9F04DB4
:1040100092469B4611B1B1FA81F202E0B0FA80F209
:1040200020329046FFF77EFF06460F4640EA0A0020
:1040300041EA0B0152465B46084303D130463946FC
:10404000BDE8F08D194652EA010015D0C8F14002D2
:104050005046FFF776FF04460D4650465946424605
:10406000FFF760FF084301D0012000E00020044377
:1040700045EAE07526432F430A984FEAD625A0EB80
:1040800008000A304FEA46534FF0000245EA475510
:104090004FEAD72402D500200146D1E70105501987
:1040A0006141DDE9084500196941BDE8F04DA0E72F
:1040B000064C074D06E0E06840F0010394E8070075
:1040C00098471034AC42F6D3FCF736F8104D000890
:1040D000304D000870B58C1810F8015B15F0030224
:1040E00001D110F8012B2B1106D110F8013B03E090
:1040F00010F8016B01F8016B521EF9D1B3B110F841
:10410000012B05F00C058A1A0C2D04D0A2EB8512A8
:1041100003F1020308E010F8015BA2EB0522F7E7C8
:1041200012F8015B01F8015B5B1EF9D5A142D3D304
:10413000002070BD02E008C8121F08C1002AFAD191
:1041400070477047002001E001C1121F002AFBD117
:1041500070470000000000000000002F0000000079
:104160000700070000147F147F1400242A7F2A12FE
:1041700000626408132300364955225000000503ED
:10418000000000001C224100000041221C0000141D
:10419000083E08140008083E0808000000A060005F
:1041A00008080808080800006060000000201008E7
:1041B0000402003E5149453E0000427F400000425B
:1041C00061514946002141454B31001814127F10BE
:1041D000002745454539003C4A49493000017109ED
:1041E000050300364949493600064949291E0000A1
:1041F00036360000000056360000081C2A49080820
:104200000014141414140808492A1C08000201514F
:10421000090600324959513E007C1211127C007F80
:1042200049494936003E41414122007F4141221C1B
:10423000007F49494941007F09090901003E414980
:10424000497A007F0808087F0000417F4100002074
:1042500040413F01007F08142241007F4040404020
:10426000007F020C027F007F0408107F003E414166
:10427000413E007F09090906003E4151215E007F51
:10428000091929460046494949310001017F0101C8
:10429000003F4040403F001F2040201F003F40386B
:1042A000403F0063140814630007087008070061AA
:1042B0005149454300007F41410000552A552A5588
:1042C000000041417F000402FF020400002040FF83
:1042D0004020000001020400002054545478007F64
:1042E0004844443800384444442000384444487F1B
:1042F00000385454541800087E0901020018A4A480
:10430000A47C007F080404780000447D4000004045
:1043100080847D00007F102844000000417F400021
:10432000007C04180478007C0804047800384444B5
:10433000443800FC242424180018242418FC007C91
:104340000804040800485454542000043F4440200A
:10435000003C4040207C001C2040201C003C4030A1
:10436000403C004428102844001CA0A0A07C00442D
:1043700064544C44141414141414D6C7C4DCB3B5D8
:10438000CAD7D1A1D2BABEA7CAD2CEC2B6C8B0B41B
:10439000BCFCB4CEB5E7D1B9001413927E32529270
:1043A000007C4444447C00010100FF4949494949DB
:1043B00049FF000000B897929094B810007F4848D9
:1043C000447420FF0A0A4A8A7F00003F4444427234
:1043D000200484C4A49C8784F4848484848400049A
:1043E000040404040404FF0404040404040404E4B2
:1043F0002526342C242426E504040400007F2525EA
:1044000025252525257F0000004042CC00504EC8C0
:10441000487FC84848400040201F2048464140404F
:104420004748484E406106E01884E41C8465BE2479
:10443000A4640404FF000100FF4121120C1B61C0B1
:10444000400000007E2A2A2A2A2A2A7E0000007FB5
:10445000252525257F00007F252525257F102C2457
:10446000A46425262424A424342C04404849494922
:10447000497F4949494B484040218670007E4A4A5D
:104480004A4A4A7E000000FE01407F41417F41418F
:104490007F41417F4000FC042424FCA5A6A4FC2409
:1044A000242404601F808042462A12122A2642C019
:1044B000401010FF9050988888E98E88889888422C
:1044C000817F004040262518081631602030EF28F3
:1044D000284464DC1054FF54547C10017F21512285
:1044E000140F14253F45454544021CC0304C300F85
:1044F00008F808082818085E432020100804030163
:10450000060830602000F848484848FF48484848B6
:10451000F80000000F040404043F444444444F40A6
:104520007000FE0242424242FA4242426242021895
:104530002720202020203F20212E242020000000A2
:10454000000000000000000000000000000000006B
:10455000F800000000000000333000000000100CE4
:1045600006100C0600000000000000000040C078AB
:1045700040C0784000043F04043F040400007088F9
:10458000FC08300000001820FF211E0000F008F099
:1045900000E018000000211C031E211E0000F0088E
:1045A00088700000001E2123241927211010160EE8
:1045B00000000000000000000000000000000000FB
:1045C000E018040200000000071820400000020468
:1045D00018E0000000004020180700000040408064
:1045E000F0804040000202010F01020200000000C2
:1045F000F0000000000101011F01010100000000A6
:10460000000000000080B07000000000000000000A
:104610000000000000000101010101010100000093
:10462000000000000000303000000000000000002A
:104630000080601804006018060100000000E0100F
:10464000080810E000000F102020100F00001010CC
:10465000F8000000000020203F202000000070082B
:10466000080888700000302824222130000030081B
:1046700088884830000018202020110E000000C05B
:104680002010F8000000070424243F240000F8084C
:1046900088880808000019212020110E0000E01071
:1046A0008888180000000F112020110E0000380823
:1046B00008C83808000000003F00000000007088B3
:1046C0000808887000001C222121221C0000E01034
:1046D000080810E0000000312222110F0000000045
:1046E000C0C00000000000003030000000000000EA
:1046F00080000000000000806000000000000080DA
:104700004020100800000102040810200040404032
:104710004040404000040404040404040000081065
:1047200020408000000020100804020100007048B2
:10473000080808F0000000003036010000C030C852
:1047400028E810E0000718272423140B000000C0FD
:1047500038E0000000203C23020227382008F888B7
:104760008888700000203F202020110E00C03008F3
:104770000808083800071820202010080008F8084A
:10478000080810E000203F202020100F0008F888C3
:1047900088E8081000203F20202320180008F8880F
:1047A00088E8081000203F200003000000C0300807
:1047B000080838000007182020221E020008F80808
:1047C000000008F808203F210101213F20000808CF
:1047D000F8080800000020203F202000000000080A
:1047E00008F8080800C08080807F00000008F88872
:1047F000C028180800203F20012638200008F808AB
:104800000000000000203F20202020300008F8F8A1
:1048100000F8F80800203F003F003F200008F83073
:10482000C00008F808203F200007183F00E01008EB
:10483000080810E0000F10202020100F0008F808D2
:10484000080808F000203F210101010000E01008E5
:10485000080810E0000F18242438504F0008F8888A
:104860008888887000203F2000030C30200070886A
:1048700008080838000038202121221C00180808E8
:10488000F8080818000000203F2000000008F80881
:10489000000008F808001F202020201F000878884A
:1048A0000000C83808000007380E010000F80800B2
:1048B000F80008F800033C0700073C0300081868EC
:1048C000808068180820302C03032C30200838C85A
:1048D00000C83808000000203F2000000010080831
:1048E00008C83808002038262120201800000000C1
:1048F000FE020202000000007F40404000000C3039
:10490000C000000000000000010638C000000202E4
:1049100002FE000000004040407F00000000000454
:10492000020202040000000000000000000000007D
:104930000000000000808080808080808000020273
:1049400004000000000000000000000000000080E3
:1049500080808000000019242222223F2008F800D5
:104960008080000000003F112020110E0000000098
:104970008080800000000E11202020110000000027
:10498000808088F800000E112020103F2000008059
:104990008080800000001F222222221300008080DD
:1049A000F0888888180020203F2020000000008028
:1049B0008080808000006B94949493600008F800DD
:1049C0008080800000203F210000203F2000809850
:1049D00098000000000020203F2020000000000080
:1049E000809898000000C08080807F000008F80058
:1049F0000080808000203F24022D30200000080825
:104A0000F8000000000020203F202000008080806F
:104A10008080808000203F20003F20003F80800079
:104A20008080800000203F210000203F2000008087
:104A30008080800000001F202020201F0080800038
:104A4000808000000080FFA12020110E00000000E7
:104A50008080808000000E112020A0FF8080808058
:104A6000008080800020203F212000010000008085
:104A7000808080800000332424242419000080805A
:104A8000E0808000000000001F20200000808000E7
:104A90000000808000001F202020103F20808080A8
:104AA000000080808000010E300806010080800038
:104AB00080008080800F300C030C300F000080805D
:104AC00000808080000020312E0E31200080808008
:104AD000000080808080818E701806010000808038
:104AE00080808080000021302C22213000000000D6
:104AF00000807C020200000000003F4040000000F7
:104B000000FF00000000000000FF000000000202A3
:104B10007C800000000040403F00000000000000DA
:104B20000000008080000000000000010100000083
:104B30000000000000000000000000000000000075
:104B40000000000000000000000000000000000065
:104B50000000000000000000000000000000000055
:104B6000000000000000000000000000000000C085
:104B7000E0F8FCFE7F3F0F0F07070787C7C7C7E7AF
:104B8000EFFFFFFFEFE7E7E7E7E7EFFFFFFFEFE705
:104B9000E7E7E7E7F7070F3F7FFFFEFCF0C0000005
:104BA0000000000000000000D8DCDFDFDFDFD701FD
:104BB0000000000000003E7FFFFFE3E1E1FFFFFF98
:104BC000E0E0E0E0E0E0E0FFFFFFE0E0E0E0C18304
:104BD000070000000001D7DFDFDFDFDCD8000000C6
:104BE0000000000001030F1F3FFFFFFEF8F0E0C0D0
:104BF000800000F8F0E0C0C0C0FFFFFFC0C0C0C030
:104C0000C0C0C0FFFFFFC0E0E1F3FF7F3F00C0E096
:104C1000F8FEFFFFFF3F1F0701000000000000003B
:104C20000000000000000001070F3F7FFFFEFCF9BD
:104C3000F3C1810101FFFFFF01010101010101FF3A
:104C4000FFFF030181C0F0FCFEFFFF7F3F0F070362
:104C50000000000000000000000000000000000054
:104C600000000000000000000003070F3F7FFFFF6F
:104C7000FFFBF3E3C3030303030383C3F3F3FBFF6C
:104C8000FFFF7F3F0F030100000000000000000055
:104C90000000000000000000000000000000000014
:104CA00000000000000000000000000307071F3F95
:104CB0007FFFFEFCFCFEFFFF7F3F0F0703000000AD
:104CC00000000000000000000000000000000000E4
:104CD00000000000000000000000000000000000D4
:104CE00000000000000000000000000000000307BA
:104CF0000F0F07010000000000000000000000008E
:104D000000000000000000000000000000000000A3
:104D1000304D0008000000208C030000D440000843
:104D2000244F00088C030020BC040000444100080C
:104D3000000D123F30313233343536373839000107
:104D400020050102030404A00D0607080902040659
:104D50000800A24A041C2118023F0001100E8080A6
:104D6000C0C0C0606060303030381801220C01A033
:104D7000050E0E0E0601330E0E17221C21112900FE
:104D80000918706060E0C0C0808055000E11C0E05E
:104D90007030381C0C06070303010174413B1007F7
:104DA0008080F0F8F8F00C100880E0F0F8FC3C1C73
:104DB000622005FCF8F0E01D900FC0C0C1010303A4
:104DC00007060E0C183870606C300EC0F0781E07A5
:104DD00033313878FCFEF6C047118A100D00F8FC1C
:104DE000DE0E0F1EBEFCF006FF0110130307FFFFCF
:104DF000FE801E3FFFFFF9F9FFFF7F1F0E7F162089
:104E000007C180CECEC6C01F10093F80FCFCFD7DCF
:104E100001C07C30047000C08D200601070E3CF8F4
:104E2000796404FEFF0363100F030F1F7FFEFCF085
:104E3000F0F07F7F3E10030E10071F0F0F030407D3
:104E40000113060006100D0F1E3F7F7F7F79733F11
:104E50003F1F0E2D120317100E0E0F0F1F3F3D08A0
:104E60000C1F1F1F193C1D6408F3F0FCFE3F1F07B9
:104E700001840ACFFF7000031F7EF0C00A651F1077
:104E800004C0C040011008F87840C04058580BB525
:104E90002710060060F0E0200125A2CA1023855DDE
:104EA000500680E0F83F0F551406070E1C3830A35B
:104EB000653514104060607030180C0711083F7D94
:104EC00066E7E3F133E0607D11EC15FB10066060EE
:104ED0007F7F6101210617E1E0DAB5CA15CB1238F0
:104EE0003C061003C71601A2680806060C0C181829
:104EF00038141101155012810485B27280013120DD
:104F0000496C380618181C0C0E1F092DB0420101FF
:104F1000B2030151150920EE3006E1E2E3E4E505B4
:044F2000CD3A030083
:0400000508000131BD
:00000001FF
